{
  "contractName": "UserMetadata",
  "abi": [
    {
      "inputs": [
        {
          "internalType": "address",
          "name": "userAddress",
          "type": "address"
        },
        {
          "internalType": "string",
          "name": "_organization",
          "type": "string"
        },
        {
          "internalType": "string",
          "name": "_country",
          "type": "string"
        }
      ],
      "stateMutability": "nonpayable",
      "type": "constructor"
    },
    {
      "anonymous": false,
      "inputs": [
        {
          "indexed": true,
          "internalType": "address",
          "name": "userAddress",
          "type": "address"
        },
        {
          "indexed": false,
          "internalType": "string",
          "name": "name",
          "type": "string"
        },
        {
          "indexed": false,
          "internalType": "string",
          "name": "IPFSHash",
          "type": "string"
        }
      ],
      "name": "FileUploaded",
      "type": "event"
    },
    {
      "anonymous": false,
      "inputs": [
        {
          "indexed": true,
          "internalType": "address",
          "name": "userAddress",
          "type": "address"
        },
        {
          "indexed": false,
          "internalType": "string",
          "name": "groupName",
          "type": "string"
        },
        {
          "indexed": false,
          "internalType": "address",
          "name": "groupContractAddress",
          "type": "address"
        }
      ],
      "name": "UserAssociatedToGroup",
      "type": "event"
    },
    {
      "anonymous": false,
      "inputs": [
        {
          "indexed": true,
          "internalType": "address",
          "name": "userAddress",
          "type": "address"
        },
        {
          "indexed": false,
          "internalType": "string",
          "name": "organization",
          "type": "string"
        },
        {
          "indexed": false,
          "internalType": "string",
          "name": "country",
          "type": "string"
        }
      ],
      "name": "UserRegistered",
      "type": "event"
    },
    {
      "inputs": [],
      "name": "owner",
      "outputs": [
        {
          "internalType": "address",
          "name": "",
          "type": "address"
        }
      ],
      "stateMutability": "view",
      "type": "function"
    },
    {
      "inputs": [],
      "name": "getOwner",
      "outputs": [
        {
          "internalType": "address",
          "name": "",
          "type": "address"
        }
      ],
      "stateMutability": "view",
      "type": "function"
    },
    {
      "inputs": [],
      "name": "getUserMetadata",
      "outputs": [
        {
          "internalType": "string",
          "name": "organization",
          "type": "string"
        },
        {
          "internalType": "string",
          "name": "country",
          "type": "string"
        },
        {
          "internalType": "bool",
          "name": "isAuthorized",
          "type": "bool"
        }
      ],
      "stateMutability": "view",
      "type": "function"
    },
    {
      "inputs": [
        {
          "internalType": "string",
          "name": "fileName",
          "type": "string"
        }
      ],
      "name": "getUserFiles",
      "outputs": [
        {
          "internalType": "string",
          "name": "name",
          "type": "string"
        },
        {
          "internalType": "string",
          "name": "IpfsHash",
          "type": "string"
        }
      ],
      "stateMutability": "view",
      "type": "function"
    },
    {
      "inputs": [],
      "name": "getUserGroupInfo",
      "outputs": [
        {
          "components": [
            {
              "internalType": "string",
              "name": "groupName",
              "type": "string"
            },
            {
              "internalType": "address",
              "name": "groupContractAddress",
              "type": "address"
            }
          ],
          "internalType": "struct UserMetadata.GroupInfo[]",
          "name": "",
          "type": "tuple[]"
        }
      ],
      "stateMutability": "view",
      "type": "function"
    },
    {
      "inputs": [
        {
          "components": [
            {
              "internalType": "string",
              "name": "IpfsHash",
              "type": "string"
            },
            {
              "internalType": "string",
              "name": "Timestamp",
              "type": "string"
            },
            {
              "internalType": "string",
              "name": "name",
              "type": "string"
            }
          ],
          "internalType": "struct UserMetadata.FileDetails[]",
          "name": "fileDetails",
          "type": "tuple[]"
        }
      ],
      "name": "uploadFiles",
      "outputs": [],
      "stateMutability": "nonpayable",
      "type": "function"
    },
    {
      "inputs": [
        {
          "internalType": "string",
          "name": "groupName",
          "type": "string"
        },
        {
          "internalType": "address",
          "name": "groupContractAddress",
          "type": "address"
        }
      ],
      "name": "associateToGroup",
      "outputs": [],
      "stateMutability": "nonpayable",
      "type": "function"
    }
  ],
  "bytecode": "0x60806040523480156200001157600080fd5b506040516200239838038062002398833981810160405281019062000037919062000353565b826000806101000a81548173ffffffffffffffffffffffffffffffffffffffff021916908373ffffffffffffffffffffffffffffffffffffffff1602179055506000600160008573ffffffffffffffffffffffffffffffffffffffff1673ffffffffffffffffffffffffffffffffffffffff168152602001908152602001600020905082816000019081620000cd919062000638565b5081816001019081620000e1919062000638565b5060018160020160006101000a81548160ff0219169083151502179055508373ffffffffffffffffffffffffffffffffffffffff167f92822564bab8864c3a47b34e8d23fbce5c46234eb5da261f94087b995ac0f33b84846040516200014992919062000771565b60405180910390a250505050620007ac565b6000604051905090565b600080fd5b600080fd5b600073ffffffffffffffffffffffffffffffffffffffff82169050919050565b60006200019c826200016f565b9050919050565b620001ae816200018f565b8114620001ba57600080fd5b50565b600081519050620001ce81620001a3565b92915050565b600080fd5b600080fd5b6000601f19601f8301169050919050565b7f4e487b7100000000000000000000000000000000000000000000000000000000600052604160045260246000fd5b6200022982620001de565b810181811067ffffffffffffffff821117156200024b576200024a620001ef565b5b80604052505050565b6000620002606200015b565b90506200026e82826200021e565b919050565b600067ffffffffffffffff821115620002915762000290620001ef565b5b6200029c82620001de565b9050602081019050919050565b60005b83811015620002c9578082015181840152602081019050620002ac565b60008484015250505050565b6000620002ec620002e68462000273565b62000254565b9050828152602081018484840111156200030b576200030a620001d9565b5b62000318848285620002a9565b509392505050565b600082601f830112620003385762000337620001d4565b5b81516200034a848260208601620002d5565b91505092915050565b6000806000606084860312156200036f576200036e62000165565b5b60006200037f86828701620001bd565b935050602084015167ffffffffffffffff811115620003a357620003a26200016a565b5b620003b18682870162000320565b925050604084015167ffffffffffffffff811115620003d557620003d46200016a565b5b620003e38682870162000320565b9150509250925092565b600081519050919050565b7f4e487b7100000000000000000000000000000000000000000000000000000000600052602260045260246000fd5b600060028204905060018216806200044057607f821691505b602082108103620004565762000455620003f8565b5b50919050565b60008190508160005260206000209050919050565b60006020601f8301049050919050565b600082821b905092915050565b600060088302620004c07fffffffffffffffffffffffffffffffffffffffffffffffffffffffffffffffff8262000481565b620004cc868362000481565b95508019841693508086168417925050509392505050565b6000819050919050565b6000819050919050565b600062000519620005136200050d84620004e4565b620004ee565b620004e4565b9050919050565b6000819050919050565b6200053583620004f8565b6200054d620005448262000520565b8484546200048e565b825550505050565b600090565b6200056462000555565b620005718184846200052a565b505050565b5b8181101562000599576200058d6000826200055a565b60018101905062000577565b5050565b601f821115620005e857620005b2816200045c565b620005bd8462000471565b81016020851015620005cd578190505b620005e5620005dc8562000471565b83018262000576565b50505b505050565b600082821c905092915050565b60006200060d60001984600802620005ed565b1980831691505092915050565b6000620006288383620005fa565b9150826002028217905092915050565b6200064382620003ed565b67ffffffffffffffff8111156200065f576200065e620001ef565b5b6200066b825462000427565b620006788282856200059d565b600060209050601f831160018114620006b057600084156200069b578287015190505b620006a785826200061a565b86555062000717565b601f198416620006c0866200045c565b60005b82811015620006ea57848901518255600182019150602085019450602081019050620006c3565b868310156200070a578489015162000706601f891682620005fa565b8355505b6001600288020188555050505b505050505050565b600082825260208201905092915050565b60006200073d82620003ed565b6200074981856200071f565b93506200075b818560208601620002a9565b6200076681620001de565b840191505092915050565b600060408201905081810360008301526200078d818562000730565b90508181036020830152620007a3818462000730565b90509392505050565b611bdc80620007bc6000396000f3fe608060405234801561001057600080fd5b506004361061007d5760003560e01c80638da5cb5b1161005b5780638da5cb5b146100ed578063996a2c011461010b578063db0c716c14610129578063fe71cd77146101455761007d565b806308895425146100825780632e76bf2b1461009e578063893d20e8146100cf575b600080fd5b61009c60048036038101906100979190611049565b610165565b005b6100b860048036038101906100b391906110a5565b610464565b6040516100c692919061116d565b60405180910390f35b6100d761067b565b6040516100e491906111b3565b60405180910390f35b6100f56106a4565b60405161010291906111b3565b60405180910390f35b6101136106c8565b6040516101209190611326565b60405180910390f35b610143600480360381019061013e91906114f0565b610a06565b005b61014d610c31565b60405161015c93929190611554565b60405180910390f35b600160003373ffffffffffffffffffffffffffffffffffffffff1673ffffffffffffffffffffffffffffffffffffffff16815260200190815260200160002060020160009054906101000a900460ff166101f4576040517f08c379a00000000000000000000000000000000000000000000000000000000081526004016101eb9061160b565b60405180910390fd5b6000825111610238576040517f08c379a000000000000000000000000000000000000000000000000000000000815260040161022f90611677565b60405180910390fd5b6000600160003373ffffffffffffffffffffffffffffffffffffffff1673ffffffffffffffffffffffffffffffffffffffff1681526020019081526020016000209050600073ffffffffffffffffffffffffffffffffffffffff1681600401846040516102a591906116d3565b908152602001604051809103902060010160009054906101000a900473ffffffffffffffffffffffffffffffffffffffff1673ffffffffffffffffffffffffffffffffffffffff161461032d576040517f08c379a00000000000000000000000000000000000000000000000000000000081526004016103249061175c565b60405180910390fd5b60405180604001604052808481526020018373ffffffffffffffffffffffffffffffffffffffff16815250816004018460405161036a91906116d3565b9081526020016040518091039020600082015181600001908161038d9190611992565b5060208201518160010160006101000a81548173ffffffffffffffffffffffffffffffffffffffff021916908373ffffffffffffffffffffffffffffffffffffffff160217905550905050806005018390806001815401808255809150506001900390600052602060002001600090919091909150908161040e9190611992565b503373ffffffffffffffffffffffffffffffffffffffff167f49601793ec42143ac6291ff5d1df07e790a68ad9f1bae1d086853339af881c458484604051610457929190611a64565b60405180910390a2505050565b60608060008054906101000a900473ffffffffffffffffffffffffffffffffffffffff1673ffffffffffffffffffffffffffffffffffffffff163373ffffffffffffffffffffffffffffffffffffffff16146104f5576040517f08c379a00000000000000000000000000000000000000000000000000000000081526004016104ec90611ae0565b60405180910390fd5b6000600160003373ffffffffffffffffffffffffffffffffffffffff1673ffffffffffffffffffffffffffffffffffffffff1681526020019081526020016000206003018460405161054791906116d3565b90815260200160405180910390209050806002018054610566906117ab565b80601f0160208091040260200160405190810160405280929190818152602001828054610592906117ab565b80156105df5780601f106105b4576101008083540402835291602001916105df565b820191906000526020600020905b8154815290600101906020018083116105c257829003601f168201915b505050505092508060000180546105f5906117ab565b80601f0160208091040260200160405190810160405280929190818152602001828054610621906117ab565b801561066e5780601f106106435761010080835404028352916020019161066e565b820191906000526020600020905b81548152906001019060200180831161065157829003601f168201915b5050505050915050915091565b60008060009054906101000a900473ffffffffffffffffffffffffffffffffffffffff16905090565b60008054906101000a900473ffffffffffffffffffffffffffffffffffffffff1681565b606060008054906101000a900473ffffffffffffffffffffffffffffffffffffffff1673ffffffffffffffffffffffffffffffffffffffff163373ffffffffffffffffffffffffffffffffffffffff1614610758576040517f08c379a000000000000000000000000000000000000000000000000000000000815260040161074f90611ae0565b60405180910390fd5b6000600160003373ffffffffffffffffffffffffffffffffffffffff1673ffffffffffffffffffffffffffffffffffffffff168152602001908152602001600020905060008160050180549050905060008167ffffffffffffffff8111156107c3576107c2610ec0565b5b6040519080825280602002602001820160405280156107fc57816020015b6107e9610e61565b8152602001906001900390816107e15790505b50905060005b828110156109fc57600084600501828154811061082257610821611b00565b5b906000526020600020018054610837906117ab565b80601f0160208091040260200160405190810160405280929190818152602001828054610863906117ab565b80156108b05780601f10610885576101008083540402835291602001916108b0565b820191906000526020600020905b81548152906001019060200180831161089357829003601f168201915b5050505050905084600401816040516108c991906116d3565b90815260200160405180910390206040518060400160405290816000820180546108f2906117ab565b80601f016020809104026020016040519081016040528092919081815260200182805461091e906117ab565b801561096b5780601f106109405761010080835404028352916020019161096b565b820191906000526020600020905b81548152906001019060200180831161094e57829003601f168201915b505050505081526020016001820160009054906101000a900473ffffffffffffffffffffffffffffffffffffffff1673ffffffffffffffffffffffffffffffffffffffff1673ffffffffffffffffffffffffffffffffffffffff16815250508383815181106109dd576109dc611b00565b5b60200260200101819052505080806109f490611b5e565b915050610802565b5080935050505090565b60008054906101000a900473ffffffffffffffffffffffffffffffffffffffff1673ffffffffffffffffffffffffffffffffffffffff163373ffffffffffffffffffffffffffffffffffffffff1614610a94576040517f08c379a0000000000000000000000000000000000000000000000000000000008152600401610a8b90611ae0565b60405180910390fd5b60005b8151811015610c2d576000828281518110610ab557610ab4611b00565b5b60200260200101516000015190506000838381518110610ad857610ad7611b00565b5b60200260200101516020015190506000848481518110610afb57610afa611b00565b5b6020026020010151604001519050604051806060016040528084815260200183815260200182815250600160003373ffffffffffffffffffffffffffffffffffffffff1673ffffffffffffffffffffffffffffffffffffffff16815260200190815260200160002060030182604051610b7491906116d3565b90815260200160405180910390206000820151816000019081610b979190611992565b506020820151816001019081610bad9190611992565b506040820151816002019081610bc39190611992565b509050503373ffffffffffffffffffffffffffffffffffffffff167f2f82310531f67ec4eae39b4f0d4e2ea9a5e6da4bb8f084adb414ec441b761c5d8285604051610c0f92919061116d565b60405180910390a25050508080610c2590611b5e565b915050610a97565b5050565b60608060008060009054906101000a900473ffffffffffffffffffffffffffffffffffffffff1673ffffffffffffffffffffffffffffffffffffffff163373ffffffffffffffffffffffffffffffffffffffff1614610cc5576040517f08c379a0000000000000000000000000000000000000000000000000000000008152600401610cbc90611ae0565b60405180910390fd5b6000600160008060009054906101000a900473ffffffffffffffffffffffffffffffffffffffff1673ffffffffffffffffffffffffffffffffffffffff1673ffffffffffffffffffffffffffffffffffffffff1681526020019081526020016000209050806000018054610d38906117ab565b80601f0160208091040260200160405190810160405280929190818152602001828054610d64906117ab565b8015610db15780601f10610d8657610100808354040283529160200191610db1565b820191906000526020600020905b815481529060010190602001808311610d9457829003601f168201915b50505050509350806001018054610dc7906117ab565b80601f0160208091040260200160405190810160405280929190818152602001828054610df3906117ab565b8015610e405780601f10610e1557610100808354040283529160200191610e40565b820191906000526020600020905b815481529060010190602001808311610e2357829003601f168201915b505050505092508060020160009054906101000a900460ff16915050909192565b604051806040016040528060608152602001600073ffffffffffffffffffffffffffffffffffffffff1681525090565b6000604051905090565b600080fd5b600080fd5b600080fd5b600080fd5b6000601f19601f8301169050919050565b7f4e487b7100000000000000000000000000000000000000000000000000000000600052604160045260246000fd5b610ef882610eaf565b810181811067ffffffffffffffff82111715610f1757610f16610ec0565b5b80604052505050565b6000610f2a610e91565b9050610f368282610eef565b919050565b600067ffffffffffffffff821115610f5657610f55610ec0565b5b610f5f82610eaf565b9050602081019050919050565b82818337600083830152505050565b6000610f8e610f8984610f3b565b610f20565b905082815260208101848484011115610faa57610fa9610eaa565b5b610fb5848285610f6c565b509392505050565b600082601f830112610fd257610fd1610ea5565b5b8135610fe2848260208601610f7b565b91505092915050565b600073ffffffffffffffffffffffffffffffffffffffff82169050919050565b600061101682610feb565b9050919050565b6110268161100b565b811461103157600080fd5b50565b6000813590506110438161101d565b92915050565b600080604083850312156110605761105f610e9b565b5b600083013567ffffffffffffffff81111561107e5761107d610ea0565b5b61108a85828601610fbd565b925050602061109b85828601611034565b9150509250929050565b6000602082840312156110bb576110ba610e9b565b5b600082013567ffffffffffffffff8111156110d9576110d8610ea0565b5b6110e584828501610fbd565b91505092915050565b600081519050919050565b600082825260208201905092915050565b60005b8381101561112857808201518184015260208101905061110d565b60008484015250505050565b600061113f826110ee565b61114981856110f9565b935061115981856020860161110a565b61116281610eaf565b840191505092915050565b600060408201905081810360008301526111878185611134565b9050818103602083015261119b8184611134565b90509392505050565b6111ad8161100b565b82525050565b60006020820190506111c860008301846111a4565b92915050565b600081519050919050565b600082825260208201905092915050565b6000819050602082019050919050565b600082825260208201905092915050565b6000611216826110ee565b61122081856111fa565b935061123081856020860161110a565b61123981610eaf565b840191505092915050565b61124d8161100b565b82525050565b60006040830160008301518482036000860152611270828261120b565b91505060208301516112856020860182611244565b508091505092915050565b600061129c8383611253565b905092915050565b6000602082019050919050565b60006112bc826111ce565b6112c681856111d9565b9350836020820285016112d8856111ea565b8060005b8581101561131457848403895281516112f58582611290565b9450611300836112a4565b925060208a019950506001810190506112dc565b50829750879550505050505092915050565b6000602082019050818103600083015261134081846112b1565b905092915050565b600067ffffffffffffffff82111561136357611362610ec0565b5b602082029050602081019050919050565b600080fd5b600080fd5b600080fd5b60006060828403121561139957611398611379565b5b6113a36060610f20565b9050600082013567ffffffffffffffff8111156113c3576113c261137e565b5b6113cf84828501610fbd565b600083015250602082013567ffffffffffffffff8111156113f3576113f261137e565b5b6113ff84828501610fbd565b602083015250604082013567ffffffffffffffff8111156114235761142261137e565b5b61142f84828501610fbd565b60408301525092915050565b600061144e61144984611348565b610f20565b9050808382526020820190506020840283018581111561147157611470611374565b5b835b818110156114b857803567ffffffffffffffff81111561149657611495610ea5565b5b8086016114a38982611383565b85526020850194505050602081019050611473565b5050509392505050565b600082601f8301126114d7576114d6610ea5565b5b81356114e784826020860161143b565b91505092915050565b60006020828403121561150657611505610e9b565b5b600082013567ffffffffffffffff81111561152457611523610ea0565b5b611530848285016114c2565b91505092915050565b60008115159050919050565b61154e81611539565b82525050565b6000606082019050818103600083015261156e8186611134565b905081810360208301526115828185611134565b90506115916040830184611545565b949350505050565b7f55736572206e6f742072656769737465726564206f7220756e617574686f726960008201527f7a65640000000000000000000000000000000000000000000000000000000000602082015250565b60006115f56023836110f9565b915061160082611599565b604082019050919050565b60006020820190508181036000830152611624816115e8565b9050919050565b7f47726f7570206e616d652063616e6e6f7420626520656d707479000000000000600082015250565b6000611661601a836110f9565b915061166c8261162b565b602082019050919050565b6000602082019050818103600083015261169081611654565b9050919050565b600081905092915050565b60006116ad826110ee565b6116b78185611697565b93506116c781856020860161110a565b80840191505092915050565b60006116df82846116a2565b915081905092915050565b7f5573657220697320616c7265616479206173736f63696174656420776974682060008201527f746869732067726f757000000000000000000000000000000000000000000000602082015250565b6000611746602a836110f9565b9150611751826116ea565b604082019050919050565b6000602082019050818103600083015261177581611739565b9050919050565b7f4e487b7100000000000000000000000000000000000000000000000000000000600052602260045260246000fd5b600060028204905060018216806117c357607f821691505b6020821081036117d6576117d561177c565b5b50919050565b60008190508160005260206000209050919050565b60006020601f8301049050919050565b600082821b905092915050565b60006008830261183e7fffffffffffffffffffffffffffffffffffffffffffffffffffffffffffffffff82611801565b6118488683611801565b95508019841693508086168417925050509392505050565b6000819050919050565b6000819050919050565b600061188f61188a61188584611860565b61186a565b611860565b9050919050565b6000819050919050565b6118a983611874565b6118bd6118b582611896565b84845461180e565b825550505050565b600090565b6118d26118c5565b6118dd8184846118a0565b505050565b5b81811015611901576118f66000826118ca565b6001810190506118e3565b5050565b601f82111561194657611917816117dc565b611920846117f1565b8101602085101561192f578190505b61194361193b856117f1565b8301826118e2565b50505b505050565b600082821c905092915050565b60006119696000198460080261194b565b1980831691505092915050565b60006119828383611958565b9150826002028217905092915050565b61199b826110ee565b67ffffffffffffffff8111156119b4576119b3610ec0565b5b6119be82546117ab565b6119c9828285611905565b600060209050601f8311600181146119fc57600084156119ea578287015190505b6119f48582611976565b865550611a5c565b601f198416611a0a866117dc565b60005b82811015611a3257848901518255600182019150602085019450602081019050611a0d565b86831015611a4f5784890151611a4b601f891682611958565b8355505b6001600288020188555050505b505050505050565b60006040820190508181036000830152611a7e8185611134565b9050611a8d60208301846111a4565b9392505050565b7f43616c6c6572206973206e6f7420746865206f776e6572000000000000000000600082015250565b6000611aca6017836110f9565b9150611ad582611a94565b602082019050919050565b60006020820190508181036000830152611af981611abd565b9050919050565b7f4e487b7100000000000000000000000000000000000000000000000000000000600052603260045260246000fd5b7f4e487b7100000000000000000000000000000000000000000000000000000000600052601160045260246000fd5b6000611b6982611860565b91507fffffffffffffffffffffffffffffffffffffffffffffffffffffffffffffffff8203611b9b57611b9a611b2f565b5b60018201905091905056fea26469706673582212205858ea6ef54778a26673132621dadaff9484e7868ea576d2c195b4147926aa2b64736f6c63430008130033",
  "immutableReferences": {},
  "source": "// SPDX-License-Identifier: MIT\npragma solidity >=0.7.0 <0.9.0;\n\ncontract UserMetadata {\n\n    address public owner;\n    struct FileDetails {\n        string IpfsHash;\n        string Timestamp;\n        string name;\n    }\n\n    struct GroupInfo {\n        string groupName;\n        address groupContractAddress;\n    }\n\n    struct UserData {\n        string organization;\n        string country;\n        bool isAuthorized;\n        mapping(string => FileDetails) files;\n        mapping(string => GroupInfo) groupInfos; // Mapping from groupName to GroupInfo\n        string[] groupNames; // Array to store group names\n    }\n\n    mapping(address => UserData) private userMetadata;\n\n    event UserRegistered(address indexed userAddress, string organization, string country);\n    event FileUploaded(address indexed userAddress, string name, string IPFSHash);\n    event UserAssociatedToGroup(address indexed userAddress, string groupName, address groupContractAddress);\n\n    /**\n     * @dev Only allows the contract owner to execute the function.\n     */\n    modifier onlyOwner() {\n        require(msg.sender == owner, \"Caller is not the owner\");\n        _;\n    }\n\n    /**\n     * @dev Only allows registered and authorized users to execute the function.\n     */\n    modifier onlyAuthorizedUser() {\n        require(userMetadata[msg.sender].isAuthorized, \"User not registered or unauthorized\");\n        _;\n    }\n\n    /**\n     * @dev Constructor to register a new user.\n     * @param _organization The organization of the user.\n     * @param _country The country of the user.\n     */\n    constructor(address userAddress ,string memory _organization, string memory _country) {\n        owner = userAddress;\n        UserData storage newUser = userMetadata[userAddress];\n        newUser.organization = _organization;\n        newUser.country = _country;\n        newUser.isAuthorized = true;\n\n        emit UserRegistered(userAddress, _organization, _country);\n    }\n\n    function getOwner() public view returns (address) {\n        return owner;\n    }\n\n    /**\n     * @dev Gets the metadata of the user.\n     * @return organization The organization of the user.\n     * @return country The country of the user.\n     * @return isAuthorized Whether the user is authorized.\n     */\n    function getUserMetadata() public view onlyOwner\n        returns (string memory organization, string memory country, bool isAuthorized) {\n        UserData storage user = userMetadata[owner];\n        organization = user.organization;\n        country = user.country;\n        isAuthorized = user.isAuthorized;\n    }\n\n    /**\n     * @dev Gets the files of the user.\n     * @param fileName The name of the file.\n     * @return name The name of the file.\n     * @return IpfsHash The IPFS hash of the file.\n     */\n    function getUserFiles(string memory fileName) public view onlyOwner\n        returns (string memory name, string memory IpfsHash) {\n        FileDetails storage file = userMetadata[msg.sender].files[fileName];\n        name = file.name;\n        IpfsHash = file.IpfsHash;\n    }\n\n    /**\n     * @dev Gets the group information of the user.\n     * @return allGroupInfos Array of GroupInfo structures.\n     */\n    function getUserGroupInfo() public view onlyOwner\n        returns (GroupInfo[] memory) {\n\n        UserData storage user = userMetadata[msg.sender];\n        uint256 groupCount = user.groupNames.length;\n\n        GroupInfo[] memory allGroupInfos = new GroupInfo[](groupCount);\n\n        for (uint256 i = 0; i < groupCount; i++) {\n            string memory groupName = user.groupNames[i];\n            allGroupInfos[i] = user.groupInfos[groupName];\n        }\n\n        return allGroupInfos;\n    }\n\n    /**\n     * @dev Uploads files for the user.\n     * @param fileDetails Array of FileDetails structures.\n     */\n    function uploadFiles(FileDetails[] memory fileDetails) public onlyOwner {\n        for (uint256 i = 0; i < fileDetails.length; i++) {\n            string memory IpfsHash = fileDetails[i].IpfsHash;\n            string memory Timestamp = fileDetails[i].Timestamp;\n            string memory name = fileDetails[i].name;\n\n            // Ensure unique file names\n\n            userMetadata[msg.sender].files[name] = FileDetails({\n                name: name,\n                IpfsHash: IpfsHash,\n                Timestamp: Timestamp\n            });\n\n            emit FileUploaded(msg.sender, name, IpfsHash);\n        }\n    }\n\n\n    /**\n     * @dev adds the group details of the user selected to be associated with the group contract.\n     * @param groupName name of the group to be associated with the user.\n     * @param groupContractAddress contract address of the group to be associated with the user.\n     */\n    function associateToGroup(string memory groupName, address groupContractAddress) public onlyAuthorizedUser {\n        require(bytes(groupName).length > 0, \"Group name cannot be empty\");\n\n        UserData storage user = userMetadata[msg.sender];\n\n        // Check if the user is already associated with this group\n        require(user.groupInfos[groupName].groupContractAddress == address(0), \"User is already associated with this group\");\n\n        // Add group information to the mapping and array\n        user.groupInfos[groupName] = GroupInfo({\n            groupName: groupName,\n            groupContractAddress: groupContractAddress\n        });\n        user.groupNames.push(groupName);\n\n        emit UserAssociatedToGroup(msg.sender, groupName, groupContractAddress);\n    }\n}\n",
  "sourcePath": "/Users/y.wang8uva.nl/experiments 2021-2024/D_VRE/back-end/contracts/UserMetadata.sol",
  "compiler": {
    "name": "solc",
    "version": "0.8.19+commit.7dd6d404.Emscripten.clang"
  },
  "schemaVersion": "3.4.16",
  "updatedAt": "2024-03-28T13:59:18.059Z",
  "devdoc": {
    "kind": "dev",
    "methods": {
      "associateToGroup(string,address)": {
        "details": "adds the group details of the user selected to be associated with the group contract.",
        "params": {
          "groupContractAddress": "contract address of the group to be associated with the user.",
          "groupName": "name of the group to be associated with the user."
        }
      },
      "constructor": {
        "details": "Constructor to register a new user.",
        "params": {
          "_country": "The country of the user.",
          "_organization": "The organization of the user."
        }
      },
      "getUserFiles(string)": {
        "details": "Gets the files of the user.",
        "params": {
          "fileName": "The name of the file."
        },
        "returns": {
          "IpfsHash": "The IPFS hash of the file.",
          "name": "The name of the file."
        }
      },
      "getUserGroupInfo()": {
        "details": "Gets the group information of the user.",
        "returns": {
          "_0": "allGroupInfos Array of GroupInfo structures."
        }
      },
      "getUserMetadata()": {
        "details": "Gets the metadata of the user.",
        "returns": {
          "country": "The country of the user.",
          "isAuthorized": "Whether the user is authorized.",
          "organization": "The organization of the user."
        }
      },
      "uploadFiles((string,string,string)[])": {
        "details": "Uploads files for the user.",
        "params": {
          "fileDetails": "Array of FileDetails structures."
        }
      }
    },
    "version": 1
  },
  "userdoc": {
    "kind": "user",
    "methods": {},
    "version": 1
  }
}